:020000040800F2
:100000007806002021020008E10B0008D90B000847
:10001000DD0B000819040008F50B000800000000C3
:10002000000000000000000000000000E90B0008D4
:100030001D04000800000000E50B0008ED0B00089F
:100040003B0200083B0200083B0200083B0200089C
:100050003B0200083B0200083B0200083B0200088C
:100060003B0200083B0200083B0200083B0200087C
:100070003B0200083B0200083B0200083B0200086C
:100080003B0200083B0200083B0200083B0200085C
:100090003B0200083B0200083B020008E90400089C
:1000A0003B0200083B0200083B0200083B0200083C
:1000B0003B0200083B0200083B0200083B0200082C
:1000C0003B0200083B0200083B0200083B0200081C
:1000D0003B0200083B0200083B0200083B0200080C
:1000E000210400083B0200083B0200083B02000814
:1000F0003B0200083B0200083B0200083B020008EC
:100100003B0200083B0200083B0200083B020008DB
:100110003B0200083B0200083B0200083B020008CB
:100120003B0200083B0200083B0200083B020008BB
:100130003B02000800000000000000003B02000835
:100140003B0200083B0200083B0200083B0200089B
:100150003B0200083B0200083B0200083B0200088B
:100160003B0200083B0200083B0200083B0200087B
:100170003B0200083B0200080000000000000000F5
:100180003B02000800F002F800F03AF80AA090E8FC
:10019000000C82448344AAF10107DA4501D100F042
:1001A0002FF8AFF2090EBAE80F0013F0010F18BFD5
:1001B000FB1A43F001031847BC0E0000DC0E0000E0
:1001C000103A24BF78C878C1FAD8520724BF30C883
:1001D00030C144BF04680C60704700000023002455
:1001E00000250026103A28BF78C1FBD8520728BF47
:1001F00030C148BF0B6070471FB51FBD10B510BDA3
:1002000000F0D0F81146FFF7F7FF00F0F5FC00F022
:10021000EEF803B4FFF7F2FF03BC00F0F5F80000BE
:100220000948804709480047FEE7FEE7FEE7FEE78A
:10023000FEE7FEE7FEE7FEE7FEE7FEE704480549C6
:10024000054A064B70470000F10B000885010008C5
:100250007800002078060020780200207802002034
:1002600053EA020C00F069802DE9F04B4FF00006D4
:10027000002B1FBFB3FA83F503FA05F424FA05F641
:100280005E4012BF1643B2FA82F502FA05F4C5F1D8
:1002900020051EBF22FA05FC44EA0C04203556EA6C
:1002A000044C4FEA144418BF641C4FF000084FF090
:1002B0000009904271EB030C39D3002919BFB1FA40
:1002C00081F701FA07F6B0FA80F700FA07F6C7F1EE
:1002D00020071EBF20FA07FC46EA0C062037B6FBB3
:1002E000F4FCA7EB0507103F07F01F0BCBF120062E
:1002F0002CFA06F60CFA0BFB44BFB3460026202F5F
:10030000A4BF5E464FF0000B5BEA060C08BF4FF03F
:10031000010B19EB0B0948EB0608ABFB027C06FB53
:1003200002CC0BFB03CCC01B71EB0C01C1E70B46ED
:10033000024641464846BDE8F08B13B5084318BF56
:100340004FF0FF300146AFF30080BDE81C4070471E
:100350004FF0000200B5134694469646203922BF5E
:10036000A0E80C50A0E80C50B1F12001BFF4F7AFA9
:10037000090728BFA0E80C5048BF0CC05DF804EB8B
:10038000890028BF40F8042B08BF704748BF20F8F9
:10039000022B11F0804F18BF00F8012B70477047F7
:1003A00070477047754600F02BF8AE460500694669
:1003B000534620F00700854618B020B5FFF73EFFF2
:1003C000BDE820404FF000064FF000074FF0000856
:1003D0004FF0000BAC46ACE8C009ACE8C009ACE893
:1003E000C009ACE8C00921F007018D46704710B57F
:1003F0000446AFF300802046BDE81040FFF709BF78
:10040000004870471000002001491820ABBEFEE7ED
:100410002600020070470000FEE700007047000061
:1004200043F61440C4F20100016809050ED40168C6
:1004300049041BD40168090430D540F27001C2F2AE
:1004400000010A78C2B300220A7027E01421C4F226
:1004500002010A6882F080020A6040F27001C2F272
:1004600000014A7802B3002220E000BF1421C4F248
:10047000020151F8041C090410D440F27001C2F2C8
:1004800000018A7802B300228A7041F21801C4F296
:1004900002010A6842F0806220E000BF016841F476
:1004A00008410160704700BF4A7801324A70016814
:1004B00041F40841016070470A7801320A7001680E
:1004C00041F40841016070478A7801328A7041F234
:1004D0001801C4F202010A6842F000720A60016861
:1004E00041F408410160704743F61440C4F2010032
:1004F000016849060CD40168090617D51021C4F219
:1005000002010968090411D44FF4807107E000BFAB
:100510001021C4F202010968090407D4802141F2C4
:100520001402C4F20202136859401160016841F0DC
:10053000C001016070470000B0B582B0019000F0CA
:1005400013F80446019D40F20000C2F2000000785A
:10055000691C18BF054400BF00F006F8001BA84244
:10056000FAD302B0B0BD000040F27400C2F2000045
:100570000068704740F2000040F27401C2F20000CF
:10058000C2F2000100780A68104408607047000059
:1005900080B543F60040C4F20200016841F40071E6
:1005A0000160016841F480610160016841F480717B
:1005B0000160032000F074F80F2000F005F800F04F
:1005C00027F8002080BD000070B540F20006C2F29E
:1005D000000640F208013278C2F200014FF47A734B
:1005E0000968B3FBF2F20446B1FBF2F1084600F0F1
:1005F000DDFA0F2C4FF0010508D838B94FF0FF3065
:1006000021460022002500F01FF87460284670BDC6
:1006100082B0002043F640010190C4F202014A6812
:1006200042F480424A604A6802F480420192019A90
:100630000090086840F080500860086800F0805022
:100640000090009802B0704710B54EF60C5CCEF2E8
:10065000000CDCF80030C3F3022E8EF00704042CEB
:1006600028BF0424BEF103034FF0FF3E0EFA04F44A
:1006700038BF0023A14399400EFA03F39A43114374
:1006800000F00F02043A624409010C3200F16043A9
:10069000B0F1FF3FC8BF03F56442117010BD000008
:1006A0004EF60C51CEF200010A684FF6FF031A40D5
:1006B00060F30A2242F0806040F0FD7008607047ED
:1006C0002DE9F041002800F0C78043F60808C4F285
:1006D00002080446D8F8F8030D4600F00F008842DF
:1006E00008D288F8F853D8F8F80300F00F00A842B1
:1006F00040F0B2802068810717D5410705D5D8F8AA
:10070000001041F4E051C8F80010010705D5D8F8F1
:10071000001041F46041C8F80010D8F80010A26839
:1007200021F0F0011143C8F80010C00720D1D8F81B
:10073000F80300F00F00A84208D988F8F853D8F859
:10074000F80300F00F00A84240F0868020684107BF
:100750001CD4000724D4D8F8000000F00C000828AE
:100760002DD004284ED147F64000C0F27D104DE058
:100770006068022864D001286AD158F8081C8903EF
:100780005CBF0120BDE8F0816AE000BFD8F800102E
:10079000E26821F4E0511143C8F800100007DAD5EF
:1007A000D8F80000216920F4604040EAC100C8F890
:1007B0000000D8F8000000F00C000828D1D158F84B
:1007C000040C58F8041C58F8043C490247F6400150
:1007D000C0F27D1100F03F02C3F388105CBF42F20B
:1007E0000041C0F2F401A1FB00010023FFF738FD36
:1007F00058F8041C0222C1F3014102EB4101B0FB95
:10080000F1F003E042F20040C0F2F400D8F800102A
:1008100041F26402C1F30311C0F60002515C40F2E0
:10082000080220FA01F140F20400C2F20000006860
:10083000C2F200021160FFF7C7FE0020BDE8F081A0
:1008400058F8081C89015CBF0120BDE8F08107E071
:1008500058F8081C890703D40120BDE8F08100BFC7
:10086000D8F8001021F003010843C8F80000FFF792
:100870007BFE064641F28837D8F80000616800F038
:100880000C00B0EB810F3FF452AFFFF76DFE801B01
:10089000B842F1D90320BDE8F08100002DE9F04114
:1008A00082B0002800F084800446007843F60006F9
:1008B000C007C4F202062FD0B06800F00C00042874
:1008C00006D13068800327D5606828BB70E000BF80
:1008D000B06800F00C00082802D170684002F0D423
:1008E0006068B0706568FFF73FFE002D054610D0C8
:1008F0003068800310D4FFF737FE401B6428F7D917
:10090000EDE000BFFFF730FE401B64284FF003000E
:100910004BD830688003F5D4207880071AD5B068AA
:1009200010F00C0F09D0B06800F00C00082840F05F
:1009300087807068400200F183803068800702D5AC
:10094000E068012834D13068216920F0F80040EADD
:10095000C1003060207800072ED42078400743D4AF
:10096000A5690DB3B06800F00C00082840F0BC8009
:10097000012D1DD07068E16900F480028A4217D110
:10098000216A00F03F028A4212D1616AC0F38812E4
:100990008A420DD1A16A00F440328A4208D1E16A4C
:1009A00000F07060884203D1002002B0BDE8F08101
:1009B000012002B0BDE8F0816069002840F200002B
:1009C000C4F247207CD00121C0F8801EFFF7CCFD87
:1009D000054600BF706F8007BFD4FFF7C5FD401B01
:1009E0000228F7D97BE000BF306C10F080580AD1A4
:1009F00000200190306C40F080503064306C00F08A
:100A000080500190019847F20007C4F2000738684F
:100A100040F4807038603868C00527D4386840F4E6
:100A200080703860FFF7A0FD054600BF3868C0053C
:100A30001CD4FFF799FD401B0228F7D94FE000BFF7
:100A4000E068002872D00020C4F247200121016034
:100A5000FFF78AFD054600BF306880073FF573AF9A
:100A6000FFF782FD401B0228F6D938E0A06886F81F
:100A70007000A568FFF778FD002D054641F2883724
:100A800012D000BF306F800711D4FFF76DFD401BFF
:100A9000B842F7D923E000BFFFF766FD401BB8421C
:100AA0004FF003003FF681AF306F8007F4D4B8F108
:100AB000000F7FF455AF306C20F0805030644FE76A
:100AC0000021C0F8801EFFF74FFD0546706F8007BC
:100AD0007FF543AFFFF748FD401B0228F6D90320FE
:100AE00002B0BDE8F08100BF0027C4F24727002014
:100AF0003866FFF739FD022D05460BD130688001BD
:100B000028D5FFF731FD401B64284FF00300F5D9CD
:100B10004BE700BF306880017FF546AFFFF724FD4B
:100B2000401B64284FF00300F4D93EE70020C4F2D4
:100B3000472000210160FFF717FD05463068800758
:100B40007FF508AFFFF710FD401B02284FF00300B0
:100B5000F4D92AE7706848F20001CFF2BC0104F131
:100B60001C0500EA010C2ECD002041EA0C01E46ACC
:100B7000CFF6FF70114300EBC53041EA83116FF3EC
:100B80000F0041EA04610843706001203866FFF7F6
:100B9000EBFC0446306880013FF506AFFFF7E4FC4C
:100BA000001B64284FF00300F4D9FEE6411E00202C
:100BB000B0EB116F1CBF012070474EF21002CEF255
:100BC000000251604EF62351CEF20001F0230B706B
:100BD0000721906011607047FEE70000FEE700000B
:100BE000FEE700007047000070470000FFF7C2BC3E
:100BF00070470000FEE7000092B0FFF7C9FC06ACAA
:100C0000201D2C21FFF7A4FB022006900120099053
:100C100010200A90002520460C95FFF73FFE28B1D2
:100C2000EFF3108072B600BFFEE700BF0F20CDE9E2
:100C3000010501A80021CDE903550595FFF740FD09
:100C400020B1EFF3108072B6FEE700BF43F630002C
:100C5000C4F20200016840F2000941F00101C4F24F
:100C600002090160D9F80010002341F48041C9F85D
:100C70000010D9F8081040F6004541F48041C9F849
:100C80000810C9F804304169C4F2020541F48041FA
:100C9000416101684FF6104441F008010160296884
:100CA000CFF6FF7421F440012960A96841F21806CB
:100CB00041F48001A960E968C4F2020641F48001B0
:100CC000E96043F60041C4F201010A5944F2000C04
:100CD00042F440520A510A68C0F2004C42F40062E9
:100CE0000A60CA6840F2805822F40062CA608A68CA
:100CF000C0F2002842F400628A604EF20412CEF282
:100D000000021768ACF5725B47F4807717600768DC
:100D100047F010070760D5F8007447F4AA17C5F824
:100D2000007456F8107C47F4AA1746F8107C46F871
:100D3000143C036840F2104743F002030360D9F803
:100D40000034C4F20207C9F800344FF4A863C9F8AC
:100D5000083447F8043C036843F0080303602B6839
:100D60002B60AB6843EA0C03AB60EB6843EA0C030F
:100D7000EB60036843F001030360D9F8003023F00F
:100D80004043C9F80030D9F8083043F08043C9F82F
:100D90000830D9F80C3043F08043C9F80C300B59B7
:100DA00043F440530B510B6843F400430B60CB6892
:100DB00023F40043CB608B6843F400438B601368DB
:100DC00043F480731360036843F004030360D7F8AF
:100DD000F033C7F8F0334FF4A043C7F8F833D7F82F
:100DE000FC3343F4A043C7F8FC334FF60C43CFF673
:100DF000FF73CC5844F40854CC500B6840F2700494
:100E000043F0C0030B60CB68C2F20004CB608B6878
:100E100043F0C0038B6052F8043C43F4000342F8F3
:100E2000043C036843F010030360D5F8000420F08D
:100E30004050C5F8000456F8100C40F0010046F888
:100E4000100C56F80C0C40F0805046F80C0C4FF685
:100E50001440CFF6FF700B5843F480630B500868C2
:100E600040F480400860C86820F48040C86088680A
:100E700040F480408860106840F4807010603068F2
:100E800040EA080030608020C9F8140008F5FF002F
:100E900000F5FF4A04E000BF6078002800F0D88029
:100EA00020780128FCD1D9F814000006F4D400BF42
:100EB0002869800405D46078012802D120780128AF
:100EC000F6D02869800403D5306840EA0B00306012
:100ED0002869000605D56078012802D1207801280C
:100EE000F6D02869000609D46078012806D1207858
:100EF000012803D1306840F0A06030603868C00637
:100F000014D46078012811D13868C0060ED46078F6
:100F100001280BD13868C00608D46078012805D1B3
:100F20003868C00602D460780128E7D03868C00667
:100F300012D5607801280FD1306840F0C070306061
:100F40004FF4FA70FFF7F8FA306840F20011C0F27F
:100F500080010843306000BF3868800614D4607890
:100F6000012811D1386880060ED4607801280BD191
:100F70003868800608D46078012805D13868800672
:100F800002D460780128E7D03868800606D56078FA
:100F9000012803D1306840EA0A0030603868000751
:100FA00014D56078012811D1386800070ED5607813
:100FB00001280BD13868000708D56078012805D1D1
:100FC0003868000702D560780128E7D03868000744
:100FD0000AD46078012807D1306840F20041C0F29D
:100FE00080310843306000BF3868C00614D4607890
:100FF000012811D13868C0060ED4607801280BD1C1
:101000003868C00608D46078012805D13868C00661
:1010100002D460780128E7D03868C0067FF53CAF7D
:10102000607801287FF438AF306840F28041C0F228
:101030000031084330604FF4FA70FFF77DFA3068F2
:1010400040EA080030604FF47A70FFF775FA23E742
:10105000207800287FF424AF3068A8F1800108438D
:1010600030601DE7000000000000000001020304E2
:101070000607080998100008000000201000000072
:10108000C0010008A8100008100000206806000039
:10109000DC0100080000000001000000100000005A
:0810A0000024F4000000000030
:040000050800018569
:00000001FF
